{
  "_format": "hh-sol-artifact-1",
  "contractName": "CCIPSender_Unsafe",
  "sourceName": "contracts/CCIPSender_Unsafe.sol",
  "abi": [
    {
      "inputs": [
        {
          "internalType": "address",
          "name": "_link",
          "type": "address"
        },
        {
          "internalType": "address",
          "name": "_router",
          "type": "address"
        }
      ],
      "stateMutability": "nonpayable",
      "type": "constructor"
    },
    {
      "inputs": [
        {
          "internalType": "address",
          "name": "_receiver",
          "type": "address"
        },
        {
          "internalType": "string",
          "name": "data",
          "type": "string"
        },
        {
          "internalType": "uint64",
          "name": "_destinationChainSelector",
          "type": "uint64"
        }
      ],
      "name": "send",
      "outputs": [],
      "stateMutability": "nonpayable",
      "type": "function"
    }
  ],
  "bytecode": "0x60806040523480156200001157600080fd5b5060405162000b8938038062000b89833981810160405281019062000037919062000253565b81600160006101000a81548173ffffffffffffffffffffffffffffffffffffffff021916908373ffffffffffffffffffffffffffffffffffffffff16021790555080600260006101000a81548173ffffffffffffffffffffffffffffffffffffffff021916908373ffffffffffffffffffffffffffffffffffffffff160217905550336000806101000a81548173ffffffffffffffffffffffffffffffffffffffff021916908373ffffffffffffffffffffffffffffffffffffffff160217905550600160009054906101000a900473ffffffffffffffffffffffffffffffffffffffff1673ffffffffffffffffffffffffffffffffffffffff1663095ea7b3600260009054906101000a900473ffffffffffffffffffffffffffffffffffffffff167fffffffffffffffffffffffffffffffffffffffffffffffffffffffffffffffff6040518363ffffffff1660e01b81526004016200019a929190620002c6565b6020604051808303816000875af1158015620001ba573d6000803e3d6000fd5b505050506040513d601f19601f82011682018060405250810190620001e0919062000330565b50505062000362565b600080fd5b600073ffffffffffffffffffffffffffffffffffffffff82169050919050565b60006200021b82620001ee565b9050919050565b6200022d816200020e565b81146200023957600080fd5b50565b6000815190506200024d8162000222565b92915050565b600080604083850312156200026d576200026c620001e9565b5b60006200027d858286016200023c565b925050602062000290858286016200023c565b9150509250929050565b620002a5816200020e565b82525050565b6000819050919050565b620002c081620002ab565b82525050565b6000604082019050620002dd60008301856200029a565b620002ec6020830184620002b5565b9392505050565b60008115159050919050565b6200030a81620002f3565b81146200031657600080fd5b50565b6000815190506200032a81620002ff565b92915050565b600060208284031215620003495762000348620001e9565b5b6000620003598482850162000319565b91505092915050565b61081780620003726000396000f3fe608060405234801561001057600080fd5b506004361061002b5760003560e01c8063570b31f014610030575b600080fd5b61004a6004803603810190610045919061041f565b61004c565b005b60006040518060a001604052808560405160200161006a919061049d565b60405160208183030381529060405281526020018460405160200161008f9190610537565b6040516020818303038152906040528152602001600067ffffffffffffffff8111156100be576100bd6102b4565b5b6040519080825280602002602001820160405280156100f757816020015b6100e46101f7565b8152602001906001900390816100dc5790505b508152602001600160009054906101000a900473ffffffffffffffffffffffffffffffffffffffff1673ffffffffffffffffffffffffffffffffffffffff168152602001604051806020016040528060008152508152509050600260009054906101000a900473ffffffffffffffffffffffffffffffffffffffff1673ffffffffffffffffffffffffffffffffffffffff166396f4e9f983836040518363ffffffff1660e01b81526004016101ad92919061074e565b6020604051808303816000875af11580156101cc573d6000803e3d6000fd5b505050506040513d601f19601f820116820180604052508101906101f091906107b4565b5050505050565b6040518060400160405280600073ffffffffffffffffffffffffffffffffffffffff168152602001600081525090565b6000604051905090565b600080fd5b600080fd5b600073ffffffffffffffffffffffffffffffffffffffff82169050919050565b60006102668261023b565b9050919050565b6102768161025b565b811461028157600080fd5b50565b6000813590506102938161026d565b92915050565b600080fd5b600080fd5b6000601f19601f8301169050919050565b7f4e487b7100000000000000000000000000000000000000000000000000000000600052604160045260246000fd5b6102ec826102a3565b810181811067ffffffffffffffff8211171561030b5761030a6102b4565b5b80604052505050565b600061031e610227565b905061032a82826102e3565b919050565b600067ffffffffffffffff82111561034a576103496102b4565b5b610353826102a3565b9050602081019050919050565b82818337600083830152505050565b600061038261037d8461032f565b610314565b90508281526020810184848401111561039e5761039d61029e565b5b6103a9848285610360565b509392505050565b600082601f8301126103c6576103c5610299565b5b81356103d684826020860161036f565b91505092915050565b600067ffffffffffffffff82169050919050565b6103fc816103df565b811461040757600080fd5b50565b600081359050610419816103f3565b92915050565b60008060006060848603121561043857610437610231565b5b600061044686828701610284565b935050602084013567ffffffffffffffff81111561046757610466610236565b5b610473868287016103b1565b92505060406104848682870161040a565b9150509250925092565b6104978161025b565b82525050565b60006020820190506104b2600083018461048e565b92915050565b600081519050919050565b600082825260208201905092915050565b60005b838110156104f25780820151818401526020810190506104d7565b60008484015250505050565b6000610509826104b8565b61051381856104c3565b93506105238185602086016104d4565b61052c816102a3565b840191505092915050565b6000602082019050818103600083015261055181846104fe565b905092915050565b610562816103df565b82525050565b600081519050919050565b600082825260208201905092915050565b600061058f82610568565b6105998185610573565b93506105a98185602086016104d4565b6105b2816102a3565b840191505092915050565b600081519050919050565b600082825260208201905092915050565b6000819050602082019050919050565b6105f28161025b565b82525050565b6000819050919050565b61060b816105f8565b82525050565b60408201600082015161062760008501826105e9565b50602082015161063a6020850182610602565b50505050565b600061064c8383610611565b60408301905092915050565b6000602082019050919050565b6000610670826105bd565b61067a81856105c8565b9350610685836105d9565b8060005b838110156106b657815161069d8882610640565b97506106a883610658565b925050600181019050610689565b5085935050505092915050565b600060a08301600083015184820360008601526106e08282610584565b915050602083015184820360208601526106fa8282610584565b915050604083015184820360408601526107148282610665565b915050606083015161072960608601826105e9565b50608083015184820360808601526107418282610584565b9150508091505092915050565b60006040820190506107636000830185610559565b818103602083015261077581846106c3565b90509392505050565b6000819050919050565b6107918161077e565b811461079c57600080fd5b50565b6000815190506107ae81610788565b92915050565b6000602082840312156107ca576107c9610231565b5b60006107d88482850161079f565b9150509291505056fea2646970667358221220a4b877a058be302d8c19bebb7bacae6f8b2b1ed03de65087e4cb134d1817299964736f6c63430008130033",
  "linkReferences": {},
  "deployedLinkReferences": {}
}