{
  "contracts/CCIPSender_Unsafe.sol": {
    "CCIPSender_Unsafe": {
      "abi": [
        {
          "inputs": [
            {
              "internalType": "address",
              "name": "_link",
              "type": "address"
            },
            {
              "internalType": "address",
              "name": "_router",
              "type": "address"
            }
          ],
          "stateMutability": "nonpayable",
          "type": "constructor"
        },
        {
          "inputs": [
            {
              "internalType": "address",
              "name": "_receiver",
              "type": "address"
            },
            {
              "internalType": "string",
              "name": "data",
              "type": "string"
            },
            {
              "internalType": "uint64",
              "name": "_destinationChainSelector",
              "type": "uint64"
            }
          ],
          "name": "send",
          "outputs": [],
          "stateMutability": "nonpayable",
          "type": "function"
        }
      ],
      "evm": {
        "bytecode": {
          "linkReferences": {},
          "object": "60806040523480156200001157600080fd5b5060405162000b8938038062000b89833981810160405281019062000037919062000253565b81600160006101000a81548173ffffffffffffffffffffffffffffffffffffffff021916908373ffffffffffffffffffffffffffffffffffffffff16021790555080600260006101000a81548173ffffffffffffffffffffffffffffffffffffffff021916908373ffffffffffffffffffffffffffffffffffffffff160217905550336000806101000a81548173ffffffffffffffffffffffffffffffffffffffff021916908373ffffffffffffffffffffffffffffffffffffffff160217905550600160009054906101000a900473ffffffffffffffffffffffffffffffffffffffff1673ffffffffffffffffffffffffffffffffffffffff1663095ea7b3600260009054906101000a900473ffffffffffffffffffffffffffffffffffffffff167fffffffffffffffffffffffffffffffffffffffffffffffffffffffffffffffff6040518363ffffffff1660e01b81526004016200019a929190620002c6565b6020604051808303816000875af1158015620001ba573d6000803e3d6000fd5b505050506040513d601f19601f82011682018060405250810190620001e0919062000330565b50505062000362565b600080fd5b600073ffffffffffffffffffffffffffffffffffffffff82169050919050565b60006200021b82620001ee565b9050919050565b6200022d816200020e565b81146200023957600080fd5b50565b6000815190506200024d8162000222565b92915050565b600080604083850312156200026d576200026c620001e9565b5b60006200027d858286016200023c565b925050602062000290858286016200023c565b9150509250929050565b620002a5816200020e565b82525050565b6000819050919050565b620002c081620002ab565b82525050565b6000604082019050620002dd60008301856200029a565b620002ec6020830184620002b5565b9392505050565b60008115159050919050565b6200030a81620002f3565b81146200031657600080fd5b50565b6000815190506200032a81620002ff565b92915050565b600060208284031215620003495762000348620001e9565b5b6000620003598482850162000319565b91505092915050565b61081780620003726000396000f3fe608060405234801561001057600080fd5b506004361061002b5760003560e01c8063570b31f014610030575b600080fd5b61004a6004803603810190610045919061041f565b61004c565b005b60006040518060a001604052808560405160200161006a919061049d565b60405160208183030381529060405281526020018460405160200161008f9190610537565b6040516020818303038152906040528152602001600067ffffffffffffffff8111156100be576100bd6102b4565b5b6040519080825280602002602001820160405280156100f757816020015b6100e46101f7565b8152602001906001900390816100dc5790505b508152602001600160009054906101000a900473ffffffffffffffffffffffffffffffffffffffff1673ffffffffffffffffffffffffffffffffffffffff168152602001604051806020016040528060008152508152509050600260009054906101000a900473ffffffffffffffffffffffffffffffffffffffff1673ffffffffffffffffffffffffffffffffffffffff166396f4e9f983836040518363ffffffff1660e01b81526004016101ad92919061074e565b6020604051808303816000875af11580156101cc573d6000803e3d6000fd5b505050506040513d601f19601f820116820180604052508101906101f091906107b4565b5050505050565b6040518060400160405280600073ffffffffffffffffffffffffffffffffffffffff168152602001600081525090565b6000604051905090565b600080fd5b600080fd5b600073ffffffffffffffffffffffffffffffffffffffff82169050919050565b60006102668261023b565b9050919050565b6102768161025b565b811461028157600080fd5b50565b6000813590506102938161026d565b92915050565b600080fd5b600080fd5b6000601f19601f8301169050919050565b7f4e487b7100000000000000000000000000000000000000000000000000000000600052604160045260246000fd5b6102ec826102a3565b810181811067ffffffffffffffff8211171561030b5761030a6102b4565b5b80604052505050565b600061031e610227565b905061032a82826102e3565b919050565b600067ffffffffffffffff82111561034a576103496102b4565b5b610353826102a3565b9050602081019050919050565b82818337600083830152505050565b600061038261037d8461032f565b610314565b90508281526020810184848401111561039e5761039d61029e565b5b6103a9848285610360565b509392505050565b600082601f8301126103c6576103c5610299565b5b81356103d684826020860161036f565b91505092915050565b600067ffffffffffffffff82169050919050565b6103fc816103df565b811461040757600080fd5b50565b600081359050610419816103f3565b92915050565b60008060006060848603121561043857610437610231565b5b600061044686828701610284565b935050602084013567ffffffffffffffff81111561046757610466610236565b5b610473868287016103b1565b92505060406104848682870161040a565b9150509250925092565b6104978161025b565b82525050565b60006020820190506104b2600083018461048e565b92915050565b600081519050919050565b600082825260208201905092915050565b60005b838110156104f25780820151818401526020810190506104d7565b60008484015250505050565b6000610509826104b8565b61051381856104c3565b93506105238185602086016104d4565b61052c816102a3565b840191505092915050565b6000602082019050818103600083015261055181846104fe565b905092915050565b610562816103df565b82525050565b600081519050919050565b600082825260208201905092915050565b600061058f82610568565b6105998185610573565b93506105a98185602086016104d4565b6105b2816102a3565b840191505092915050565b600081519050919050565b600082825260208201905092915050565b6000819050602082019050919050565b6105f28161025b565b82525050565b6000819050919050565b61060b816105f8565b82525050565b60408201600082015161062760008501826105e9565b50602082015161063a6020850182610602565b50505050565b600061064c8383610611565b60408301905092915050565b6000602082019050919050565b6000610670826105bd565b61067a81856105c8565b9350610685836105d9565b8060005b838110156106b657815161069d8882610640565b97506106a883610658565b925050600181019050610689565b5085935050505092915050565b600060a08301600083015184820360008601526106e08282610584565b915050602083015184820360208601526106fa8282610584565b915050604083015184820360408601526107148282610665565b915050606083015161072960608601826105e9565b50608083015184820360808601526107418282610584565b9150508091505092915050565b60006040820190506107636000830185610559565b818103602083015261077581846106c3565b90509392505050565b6000819050919050565b6107918161077e565b811461079c57600080fd5b50565b6000815190506107ae81610788565b92915050565b6000602082840312156107ca576107c9610231565b5b60006107d88482850161079f565b9150509291505056fea2646970667358221220a4b877a058be302d8c19bebb7bacae6f8b2b1ed03de65087e4cb134d1817299964736f6c63430008130033",
          "opcodes": "PUSH1 0x80 PUSH1 0x40 MSTORE CALLVALUE DUP1 ISZERO PUSH3 0x11 JUMPI PUSH1 0x0 DUP1 REVERT JUMPDEST POP PUSH1 0x40 MLOAD PUSH3 0xB89 CODESIZE SUB DUP1 PUSH3 0xB89 DUP4 CODECOPY DUP2 DUP2 ADD PUSH1 0x40 MSTORE DUP2 ADD SWAP1 PUSH3 0x37 SWAP2 SWAP1 PUSH3 0x253 JUMP JUMPDEST DUP2 PUSH1 0x1 PUSH1 0x0 PUSH2 0x100 EXP DUP2 SLOAD DUP2 PUSH20 0xFFFFFFFFFFFFFFFFFFFFFFFFFFFFFFFFFFFFFFFF MUL NOT AND SWAP1 DUP4 PUSH20 0xFFFFFFFFFFFFFFFFFFFFFFFFFFFFFFFFFFFFFFFF AND MUL OR SWAP1 SSTORE POP DUP1 PUSH1 0x2 PUSH1 0x0 PUSH2 0x100 EXP DUP2 SLOAD DUP2 PUSH20 0xFFFFFFFFFFFFFFFFFFFFFFFFFFFFFFFFFFFFFFFF MUL NOT AND SWAP1 DUP4 PUSH20 0xFFFFFFFFFFFFFFFFFFFFFFFFFFFFFFFFFFFFFFFF AND MUL OR SWAP1 SSTORE POP CALLER PUSH1 0x0 DUP1 PUSH2 0x100 EXP DUP2 SLOAD DUP2 PUSH20 0xFFFFFFFFFFFFFFFFFFFFFFFFFFFFFFFFFFFFFFFF MUL NOT AND SWAP1 DUP4 PUSH20 0xFFFFFFFFFFFFFFFFFFFFFFFFFFFFFFFFFFFFFFFF AND MUL OR SWAP1 SSTORE POP PUSH1 0x1 PUSH1 0x0 SWAP1 SLOAD SWAP1 PUSH2 0x100 EXP SWAP1 DIV PUSH20 0xFFFFFFFFFFFFFFFFFFFFFFFFFFFFFFFFFFFFFFFF AND PUSH20 0xFFFFFFFFFFFFFFFFFFFFFFFFFFFFFFFFFFFFFFFF AND PUSH4 0x95EA7B3 PUSH1 0x2 PUSH1 0x0 SWAP1 SLOAD SWAP1 PUSH2 0x100 EXP SWAP1 DIV PUSH20 0xFFFFFFFFFFFFFFFFFFFFFFFFFFFFFFFFFFFFFFFF AND PUSH32 0xFFFFFFFFFFFFFFFFFFFFFFFFFFFFFFFFFFFFFFFFFFFFFFFFFFFFFFFFFFFFFFFF PUSH1 0x40 MLOAD DUP4 PUSH4 0xFFFFFFFF AND PUSH1 0xE0 SHL DUP2 MSTORE PUSH1 0x4 ADD PUSH3 0x19A SWAP3 SWAP2 SWAP1 PUSH3 0x2C6 JUMP JUMPDEST PUSH1 0x20 PUSH1 0x40 MLOAD DUP1 DUP4 SUB DUP2 PUSH1 0x0 DUP8 GAS CALL ISZERO DUP1 ISZERO PUSH3 0x1BA JUMPI RETURNDATASIZE PUSH1 0x0 DUP1 RETURNDATACOPY RETURNDATASIZE PUSH1 0x0 REVERT JUMPDEST POP POP POP POP PUSH1 0x40 MLOAD RETURNDATASIZE PUSH1 0x1F NOT PUSH1 0x1F DUP3 ADD AND DUP3 ADD DUP1 PUSH1 0x40 MSTORE POP DUP2 ADD SWAP1 PUSH3 0x1E0 SWAP2 SWAP1 PUSH3 0x330 JUMP JUMPDEST POP POP POP PUSH3 0x362 JUMP JUMPDEST PUSH1 0x0 DUP1 REVERT JUMPDEST PUSH1 0x0 PUSH20 0xFFFFFFFFFFFFFFFFFFFFFFFFFFFFFFFFFFFFFFFF DUP3 AND SWAP1 POP SWAP2 SWAP1 POP JUMP JUMPDEST PUSH1 0x0 PUSH3 0x21B DUP3 PUSH3 0x1EE JUMP JUMPDEST SWAP1 POP SWAP2 SWAP1 POP JUMP JUMPDEST PUSH3 0x22D DUP2 PUSH3 0x20E JUMP JUMPDEST DUP2 EQ PUSH3 0x239 JUMPI PUSH1 0x0 DUP1 REVERT JUMPDEST POP JUMP JUMPDEST PUSH1 0x0 DUP2 MLOAD SWAP1 POP PUSH3 0x24D DUP2 PUSH3 0x222 JUMP JUMPDEST SWAP3 SWAP2 POP POP JUMP JUMPDEST PUSH1 0x0 DUP1 PUSH1 0x40 DUP4 DUP6 SUB SLT ISZERO PUSH3 0x26D JUMPI PUSH3 0x26C PUSH3 0x1E9 JUMP JUMPDEST JUMPDEST PUSH1 0x0 PUSH3 0x27D DUP6 DUP3 DUP7 ADD PUSH3 0x23C JUMP JUMPDEST SWAP3 POP POP PUSH1 0x20 PUSH3 0x290 DUP6 DUP3 DUP7 ADD PUSH3 0x23C JUMP JUMPDEST SWAP2 POP POP SWAP3 POP SWAP3 SWAP1 POP JUMP JUMPDEST PUSH3 0x2A5 DUP2 PUSH3 0x20E JUMP JUMPDEST DUP3 MSTORE POP POP JUMP JUMPDEST PUSH1 0x0 DUP2 SWAP1 POP SWAP2 SWAP1 POP JUMP JUMPDEST PUSH3 0x2C0 DUP2 PUSH3 0x2AB JUMP JUMPDEST DUP3 MSTORE POP POP JUMP JUMPDEST PUSH1 0x0 PUSH1 0x40 DUP3 ADD SWAP1 POP PUSH3 0x2DD PUSH1 0x0 DUP4 ADD DUP6 PUSH3 0x29A JUMP JUMPDEST PUSH3 0x2EC PUSH1 0x20 DUP4 ADD DUP5 PUSH3 0x2B5 JUMP JUMPDEST SWAP4 SWAP3 POP POP POP JUMP JUMPDEST PUSH1 0x0 DUP2 ISZERO ISZERO SWAP1 POP SWAP2 SWAP1 POP JUMP JUMPDEST PUSH3 0x30A DUP2 PUSH3 0x2F3 JUMP JUMPDEST DUP2 EQ PUSH3 0x316 JUMPI PUSH1 0x0 DUP1 REVERT JUMPDEST POP JUMP JUMPDEST PUSH1 0x0 DUP2 MLOAD SWAP1 POP PUSH3 0x32A DUP2 PUSH3 0x2FF JUMP JUMPDEST SWAP3 SWAP2 POP POP JUMP JUMPDEST PUSH1 0x0 PUSH1 0x20 DUP3 DUP5 SUB SLT ISZERO PUSH3 0x349 JUMPI PUSH3 0x348 PUSH3 0x1E9 JUMP JUMPDEST JUMPDEST PUSH1 0x0 PUSH3 0x359 DUP5 DUP3 DUP6 ADD PUSH3 0x319 JUMP JUMPDEST SWAP2 POP POP SWAP3 SWAP2 POP POP JUMP JUMPDEST PUSH2 0x817 DUP1 PUSH3 0x372 PUSH1 0x0 CODECOPY PUSH1 0x0 RETURN INVALID PUSH1 0x80 PUSH1 0x40 MSTORE CALLVALUE DUP1 ISZERO PUSH2 0x10 JUMPI PUSH1 0x0 DUP1 REVERT JUMPDEST POP PUSH1 0x4 CALLDATASIZE LT PUSH2 0x2B JUMPI PUSH1 0x0 CALLDATALOAD PUSH1 0xE0 SHR DUP1 PUSH4 0x570B31F0 EQ PUSH2 0x30 JUMPI JUMPDEST PUSH1 0x0 DUP1 REVERT JUMPDEST PUSH2 0x4A PUSH1 0x4 DUP1 CALLDATASIZE SUB DUP2 ADD SWAP1 PUSH2 0x45 SWAP2 SWAP1 PUSH2 0x41F JUMP JUMPDEST PUSH2 0x4C JUMP JUMPDEST STOP JUMPDEST PUSH1 0x0 PUSH1 0x40 MLOAD DUP1 PUSH1 0xA0 ADD PUSH1 0x40 MSTORE DUP1 DUP6 PUSH1 0x40 MLOAD PUSH1 0x20 ADD PUSH2 0x6A SWAP2 SWAP1 PUSH2 0x49D JUMP JUMPDEST PUSH1 0x40 MLOAD PUSH1 0x20 DUP2 DUP4 SUB SUB DUP2 MSTORE SWAP1 PUSH1 0x40 MSTORE DUP2 MSTORE PUSH1 0x20 ADD DUP5 PUSH1 0x40 MLOAD PUSH1 0x20 ADD PUSH2 0x8F SWAP2 SWAP1 PUSH2 0x537 JUMP JUMPDEST PUSH1 0x40 MLOAD PUSH1 0x20 DUP2 DUP4 SUB SUB DUP2 MSTORE SWAP1 PUSH1 0x40 MSTORE DUP2 MSTORE PUSH1 0x20 ADD PUSH1 0x0 PUSH8 0xFFFFFFFFFFFFFFFF DUP2 GT ISZERO PUSH2 0xBE JUMPI PUSH2 0xBD PUSH2 0x2B4 JUMP JUMPDEST JUMPDEST PUSH1 0x40 MLOAD SWAP1 DUP1 DUP3 MSTORE DUP1 PUSH1 0x20 MUL PUSH1 0x20 ADD DUP3 ADD PUSH1 0x40 MSTORE DUP1 ISZERO PUSH2 0xF7 JUMPI DUP2 PUSH1 0x20 ADD JUMPDEST PUSH2 0xE4 PUSH2 0x1F7 JUMP JUMPDEST DUP2 MSTORE PUSH1 0x20 ADD SWAP1 PUSH1 0x1 SWAP1 SUB SWAP1 DUP2 PUSH2 0xDC JUMPI SWAP1 POP JUMPDEST POP DUP2 MSTORE PUSH1 0x20 ADD PUSH1 0x1 PUSH1 0x0 SWAP1 SLOAD SWAP1 PUSH2 0x100 EXP SWAP1 DIV PUSH20 0xFFFFFFFFFFFFFFFFFFFFFFFFFFFFFFFFFFFFFFFF AND PUSH20 0xFFFFFFFFFFFFFFFFFFFFFFFFFFFFFFFFFFFFFFFF AND DUP2 MSTORE PUSH1 0x20 ADD PUSH1 0x40 MLOAD DUP1 PUSH1 0x20 ADD PUSH1 0x40 MSTORE DUP1 PUSH1 0x0 DUP2 MSTORE POP DUP2 MSTORE POP SWAP1 POP PUSH1 0x2 PUSH1 0x0 SWAP1 SLOAD SWAP1 PUSH2 0x100 EXP SWAP1 DIV PUSH20 0xFFFFFFFFFFFFFFFFFFFFFFFFFFFFFFFFFFFFFFFF AND PUSH20 0xFFFFFFFFFFFFFFFFFFFFFFFFFFFFFFFFFFFFFFFF AND PUSH4 0x96F4E9F9 DUP4 DUP4 PUSH1 0x40 MLOAD DUP4 PUSH4 0xFFFFFFFF AND PUSH1 0xE0 SHL DUP2 MSTORE PUSH1 0x4 ADD PUSH2 0x1AD SWAP3 SWAP2 SWAP1 PUSH2 0x74E JUMP JUMPDEST PUSH1 0x20 PUSH1 0x40 MLOAD DUP1 DUP4 SUB DUP2 PUSH1 0x0 DUP8 GAS CALL ISZERO DUP1 ISZERO PUSH2 0x1CC JUMPI RETURNDATASIZE PUSH1 0x0 DUP1 RETURNDATACOPY RETURNDATASIZE PUSH1 0x0 REVERT JUMPDEST POP POP POP POP PUSH1 0x40 MLOAD RETURNDATASIZE PUSH1 0x1F NOT PUSH1 0x1F DUP3 ADD AND DUP3 ADD DUP1 PUSH1 0x40 MSTORE POP DUP2 ADD SWAP1 PUSH2 0x1F0 SWAP2 SWAP1 PUSH2 0x7B4 JUMP JUMPDEST POP POP POP POP POP JUMP JUMPDEST PUSH1 0x40 MLOAD DUP1 PUSH1 0x40 ADD PUSH1 0x40 MSTORE DUP1 PUSH1 0x0 PUSH20 0xFFFFFFFFFFFFFFFFFFFFFFFFFFFFFFFFFFFFFFFF AND DUP2 MSTORE PUSH1 0x20 ADD PUSH1 0x0 DUP2 MSTORE POP SWAP1 JUMP JUMPDEST PUSH1 0x0 PUSH1 0x40 MLOAD SWAP1 POP SWAP1 JUMP JUMPDEST PUSH1 0x0 DUP1 REVERT JUMPDEST PUSH1 0x0 DUP1 REVERT JUMPDEST PUSH1 0x0 PUSH20 0xFFFFFFFFFFFFFFFFFFFFFFFFFFFFFFFFFFFFFFFF DUP3 AND SWAP1 POP SWAP2 SWAP1 POP JUMP JUMPDEST PUSH1 0x0 PUSH2 0x266 DUP3 PUSH2 0x23B JUMP JUMPDEST SWAP1 POP SWAP2 SWAP1 POP JUMP JUMPDEST PUSH2 0x276 DUP2 PUSH2 0x25B JUMP JUMPDEST DUP2 EQ PUSH2 0x281 JUMPI PUSH1 0x0 DUP1 REVERT JUMPDEST POP JUMP JUMPDEST PUSH1 0x0 DUP2 CALLDATALOAD SWAP1 POP PUSH2 0x293 DUP2 PUSH2 0x26D JUMP JUMPDEST SWAP3 SWAP2 POP POP JUMP JUMPDEST PUSH1 0x0 DUP1 REVERT JUMPDEST PUSH1 0x0 DUP1 REVERT JUMPDEST PUSH1 0x0 PUSH1 0x1F NOT PUSH1 0x1F DUP4 ADD AND SWAP1 POP SWAP2 SWAP1 POP JUMP JUMPDEST PUSH32 0x4E487B7100000000000000000000000000000000000000000000000000000000 PUSH1 0x0 MSTORE PUSH1 0x41 PUSH1 0x4 MSTORE PUSH1 0x24 PUSH1 0x0 REVERT JUMPDEST PUSH2 0x2EC DUP3 PUSH2 0x2A3 JUMP JUMPDEST DUP2 ADD DUP2 DUP2 LT PUSH8 0xFFFFFFFFFFFFFFFF DUP3 GT OR ISZERO PUSH2 0x30B JUMPI PUSH2 0x30A PUSH2 0x2B4 JUMP JUMPDEST JUMPDEST DUP1 PUSH1 0x40 MSTORE POP POP POP JUMP JUMPDEST PUSH1 0x0 PUSH2 0x31E PUSH2 0x227 JUMP JUMPDEST SWAP1 POP PUSH2 0x32A DUP3 DUP3 PUSH2 0x2E3 JUMP JUMPDEST SWAP2 SWAP1 POP JUMP JUMPDEST PUSH1 0x0 PUSH8 0xFFFFFFFFFFFFFFFF DUP3 GT ISZERO PUSH2 0x34A JUMPI PUSH2 0x349 PUSH2 0x2B4 JUMP JUMPDEST JUMPDEST PUSH2 0x353 DUP3 PUSH2 0x2A3 JUMP JUMPDEST SWAP1 POP PUSH1 0x20 DUP2 ADD SWAP1 POP SWAP2 SWAP1 POP JUMP JUMPDEST DUP3 DUP2 DUP4 CALLDATACOPY PUSH1 0x0 DUP4 DUP4 ADD MSTORE POP POP POP JUMP JUMPDEST PUSH1 0x0 PUSH2 0x382 PUSH2 0x37D DUP5 PUSH2 0x32F JUMP JUMPDEST PUSH2 0x314 JUMP JUMPDEST SWAP1 POP DUP3 DUP2 MSTORE PUSH1 0x20 DUP2 ADD DUP5 DUP5 DUP5 ADD GT ISZERO PUSH2 0x39E JUMPI PUSH2 0x39D PUSH2 0x29E JUMP JUMPDEST JUMPDEST PUSH2 0x3A9 DUP5 DUP3 DUP6 PUSH2 0x360 JUMP JUMPDEST POP SWAP4 SWAP3 POP POP POP JUMP JUMPDEST PUSH1 0x0 DUP3 PUSH1 0x1F DUP4 ADD SLT PUSH2 0x3C6 JUMPI PUSH2 0x3C5 PUSH2 0x299 JUMP JUMPDEST JUMPDEST DUP2 CALLDATALOAD PUSH2 0x3D6 DUP5 DUP3 PUSH1 0x20 DUP7 ADD PUSH2 0x36F JUMP JUMPDEST SWAP2 POP POP SWAP3 SWAP2 POP POP JUMP JUMPDEST PUSH1 0x0 PUSH8 0xFFFFFFFFFFFFFFFF DUP3 AND SWAP1 POP SWAP2 SWAP1 POP JUMP JUMPDEST PUSH2 0x3FC DUP2 PUSH2 0x3DF JUMP JUMPDEST DUP2 EQ PUSH2 0x407 JUMPI PUSH1 0x0 DUP1 REVERT JUMPDEST POP JUMP JUMPDEST PUSH1 0x0 DUP2 CALLDATALOAD SWAP1 POP PUSH2 0x419 DUP2 PUSH2 0x3F3 JUMP JUMPDEST SWAP3 SWAP2 POP POP JUMP JUMPDEST PUSH1 0x0 DUP1 PUSH1 0x0 PUSH1 0x60 DUP5 DUP7 SUB SLT ISZERO PUSH2 0x438 JUMPI PUSH2 0x437 PUSH2 0x231 JUMP JUMPDEST JUMPDEST PUSH1 0x0 PUSH2 0x446 DUP7 DUP3 DUP8 ADD PUSH2 0x284 JUMP JUMPDEST SWAP4 POP POP PUSH1 0x20 DUP5 ADD CALLDATALOAD PUSH8 0xFFFFFFFFFFFFFFFF DUP2 GT ISZERO PUSH2 0x467 JUMPI PUSH2 0x466 PUSH2 0x236 JUMP JUMPDEST JUMPDEST PUSH2 0x473 DUP7 DUP3 DUP8 ADD PUSH2 0x3B1 JUMP JUMPDEST SWAP3 POP POP PUSH1 0x40 PUSH2 0x484 DUP7 DUP3 DUP8 ADD PUSH2 0x40A JUMP JUMPDEST SWAP2 POP POP SWAP3 POP SWAP3 POP SWAP3 JUMP JUMPDEST PUSH2 0x497 DUP2 PUSH2 0x25B JUMP JUMPDEST DUP3 MSTORE POP POP JUMP JUMPDEST PUSH1 0x0 PUSH1 0x20 DUP3 ADD SWAP1 POP PUSH2 0x4B2 PUSH1 0x0 DUP4 ADD DUP5 PUSH2 0x48E JUMP JUMPDEST SWAP3 SWAP2 POP POP JUMP JUMPDEST PUSH1 0x0 DUP2 MLOAD SWAP1 POP SWAP2 SWAP1 POP JUMP JUMPDEST PUSH1 0x0 DUP3 DUP3 MSTORE PUSH1 0x20 DUP3 ADD SWAP1 POP SWAP3 SWAP2 POP POP JUMP JUMPDEST PUSH1 0x0 JUMPDEST DUP4 DUP2 LT ISZERO PUSH2 0x4F2 JUMPI DUP1 DUP3 ADD MLOAD DUP2 DUP5 ADD MSTORE PUSH1 0x20 DUP2 ADD SWAP1 POP PUSH2 0x4D7 JUMP JUMPDEST PUSH1 0x0 DUP5 DUP5 ADD MSTORE POP POP POP POP JUMP JUMPDEST PUSH1 0x0 PUSH2 0x509 DUP3 PUSH2 0x4B8 JUMP JUMPDEST PUSH2 0x513 DUP2 DUP6 PUSH2 0x4C3 JUMP JUMPDEST SWAP4 POP PUSH2 0x523 DUP2 DUP6 PUSH1 0x20 DUP7 ADD PUSH2 0x4D4 JUMP JUMPDEST PUSH2 0x52C DUP2 PUSH2 0x2A3 JUMP JUMPDEST DUP5 ADD SWAP2 POP POP SWAP3 SWAP2 POP POP JUMP JUMPDEST PUSH1 0x0 PUSH1 0x20 DUP3 ADD SWAP1 POP DUP2 DUP2 SUB PUSH1 0x0 DUP4 ADD MSTORE PUSH2 0x551 DUP2 DUP5 PUSH2 0x4FE JUMP JUMPDEST SWAP1 POP SWAP3 SWAP2 POP POP JUMP JUMPDEST PUSH2 0x562 DUP2 PUSH2 0x3DF JUMP JUMPDEST DUP3 MSTORE POP POP JUMP JUMPDEST PUSH1 0x0 DUP2 MLOAD SWAP1 POP SWAP2 SWAP1 POP JUMP JUMPDEST PUSH1 0x0 DUP3 DUP3 MSTORE PUSH1 0x20 DUP3 ADD SWAP1 POP SWAP3 SWAP2 POP POP JUMP JUMPDEST PUSH1 0x0 PUSH2 0x58F DUP3 PUSH2 0x568 JUMP JUMPDEST PUSH2 0x599 DUP2 DUP6 PUSH2 0x573 JUMP JUMPDEST SWAP4 POP PUSH2 0x5A9 DUP2 DUP6 PUSH1 0x20 DUP7 ADD PUSH2 0x4D4 JUMP JUMPDEST PUSH2 0x5B2 DUP2 PUSH2 0x2A3 JUMP JUMPDEST DUP5 ADD SWAP2 POP POP SWAP3 SWAP2 POP POP JUMP JUMPDEST PUSH1 0x0 DUP2 MLOAD SWAP1 POP SWAP2 SWAP1 POP JUMP JUMPDEST PUSH1 0x0 DUP3 DUP3 MSTORE PUSH1 0x20 DUP3 ADD SWAP1 POP SWAP3 SWAP2 POP POP JUMP JUMPDEST PUSH1 0x0 DUP2 SWAP1 POP PUSH1 0x20 DUP3 ADD SWAP1 POP SWAP2 SWAP1 POP JUMP JUMPDEST PUSH2 0x5F2 DUP2 PUSH2 0x25B JUMP JUMPDEST DUP3 MSTORE POP POP JUMP JUMPDEST PUSH1 0x0 DUP2 SWAP1 POP SWAP2 SWAP1 POP JUMP JUMPDEST PUSH2 0x60B DUP2 PUSH2 0x5F8 JUMP JUMPDEST DUP3 MSTORE POP POP JUMP JUMPDEST PUSH1 0x40 DUP3 ADD PUSH1 0x0 DUP3 ADD MLOAD PUSH2 0x627 PUSH1 0x0 DUP6 ADD DUP3 PUSH2 0x5E9 JUMP JUMPDEST POP PUSH1 0x20 DUP3 ADD MLOAD PUSH2 0x63A PUSH1 0x20 DUP6 ADD DUP3 PUSH2 0x602 JUMP JUMPDEST POP POP POP POP JUMP JUMPDEST PUSH1 0x0 PUSH2 0x64C DUP4 DUP4 PUSH2 0x611 JUMP JUMPDEST PUSH1 0x40 DUP4 ADD SWAP1 POP SWAP3 SWAP2 POP POP JUMP JUMPDEST PUSH1 0x0 PUSH1 0x20 DUP3 ADD SWAP1 POP SWAP2 SWAP1 POP JUMP JUMPDEST PUSH1 0x0 PUSH2 0x670 DUP3 PUSH2 0x5BD JUMP JUMPDEST PUSH2 0x67A DUP2 DUP6 PUSH2 0x5C8 JUMP JUMPDEST SWAP4 POP PUSH2 0x685 DUP4 PUSH2 0x5D9 JUMP JUMPDEST DUP1 PUSH1 0x0 JUMPDEST DUP4 DUP2 LT ISZERO PUSH2 0x6B6 JUMPI DUP2 MLOAD PUSH2 0x69D DUP9 DUP3 PUSH2 0x640 JUMP JUMPDEST SWAP8 POP PUSH2 0x6A8 DUP4 PUSH2 0x658 JUMP JUMPDEST SWAP3 POP POP PUSH1 0x1 DUP2 ADD SWAP1 POP PUSH2 0x689 JUMP JUMPDEST POP DUP6 SWAP4 POP POP POP POP SWAP3 SWAP2 POP POP JUMP JUMPDEST PUSH1 0x0 PUSH1 0xA0 DUP4 ADD PUSH1 0x0 DUP4 ADD MLOAD DUP5 DUP3 SUB PUSH1 0x0 DUP7 ADD MSTORE PUSH2 0x6E0 DUP3 DUP3 PUSH2 0x584 JUMP JUMPDEST SWAP2 POP POP PUSH1 0x20 DUP4 ADD MLOAD DUP5 DUP3 SUB PUSH1 0x20 DUP7 ADD MSTORE PUSH2 0x6FA DUP3 DUP3 PUSH2 0x584 JUMP JUMPDEST SWAP2 POP POP PUSH1 0x40 DUP4 ADD MLOAD DUP5 DUP3 SUB PUSH1 0x40 DUP7 ADD MSTORE PUSH2 0x714 DUP3 DUP3 PUSH2 0x665 JUMP JUMPDEST SWAP2 POP POP PUSH1 0x60 DUP4 ADD MLOAD PUSH2 0x729 PUSH1 0x60 DUP7 ADD DUP3 PUSH2 0x5E9 JUMP JUMPDEST POP PUSH1 0x80 DUP4 ADD MLOAD DUP5 DUP3 SUB PUSH1 0x80 DUP7 ADD MSTORE PUSH2 0x741 DUP3 DUP3 PUSH2 0x584 JUMP JUMPDEST SWAP2 POP POP DUP1 SWAP2 POP POP SWAP3 SWAP2 POP POP JUMP JUMPDEST PUSH1 0x0 PUSH1 0x40 DUP3 ADD SWAP1 POP PUSH2 0x763 PUSH1 0x0 DUP4 ADD DUP6 PUSH2 0x559 JUMP JUMPDEST DUP2 DUP2 SUB PUSH1 0x20 DUP4 ADD MSTORE PUSH2 0x775 DUP2 DUP5 PUSH2 0x6C3 JUMP JUMPDEST SWAP1 POP SWAP4 SWAP3 POP POP POP JUMP JUMPDEST PUSH1 0x0 DUP2 SWAP1 POP SWAP2 SWAP1 POP JUMP JUMPDEST PUSH2 0x791 DUP2 PUSH2 0x77E JUMP JUMPDEST DUP2 EQ PUSH2 0x79C JUMPI PUSH1 0x0 DUP1 REVERT JUMPDEST POP JUMP JUMPDEST PUSH1 0x0 DUP2 MLOAD SWAP1 POP PUSH2 0x7AE DUP2 PUSH2 0x788 JUMP JUMPDEST SWAP3 SWAP2 POP POP JUMP JUMPDEST PUSH1 0x0 PUSH1 0x20 DUP3 DUP5 SUB SLT ISZERO PUSH2 0x7CA JUMPI PUSH2 0x7C9 PUSH2 0x231 JUMP JUMPDEST JUMPDEST PUSH1 0x0 PUSH2 0x7D8 DUP5 DUP3 DUP6 ADD PUSH2 0x79F JUMP JUMPDEST SWAP2 POP POP SWAP3 SWAP2 POP POP JUMP INVALID LOG2 PUSH5 0x6970667358 0x22 SLT KECCAK256 LOG4 0xB8 PUSH24 0xA058BE302D8C19BEBB7BACAE6F8B2B1ED03DE65087E4CB13 0x4D XOR OR 0x29 SWAP10 PUSH5 0x736F6C6343 STOP ADDMOD SGT STOP CALLER "
        },
        "methodIdentifiers": {
          "send(address,string,uint64)": "570b31f0"
        }
      }
    }
  }
}